:1000000010308A0000280000FF00030E8301A100C9
:100010000A08A0008A010408A2007708A300780853
:10002000A4007908A5007A08A60003170D08031399
:10003000A70003170F080313A80003170C080313E6
:10004000A90003170E080313AA00831383120B1EC3
:100050002B288B184C28220884002308F70024083A
:10006000F8002508F9002608FA00270803178D0074
:100070000313280803178F000313290803178C00A4
:1000800003132A0803178E00031320088A00210E89
:100090008300FF0E7F0E09008A110A12CB2C0A1072
:1000A0008A100A11820728340C34013406345B307C
:1000B00084008313000803196B280130F800F7014E
:1000C000F70B6028F80B5F284A30F700F70B66281B
:1000D0006928800B5D2808005C0B7028DD018428EE
:1000E0005C08023C031D77284030DD0084285C0852
:1000F000033C031D7E281430DD0084285C08043C8A
:10010000031D84285430DD0001305B02DD075D08EB
:100110008038DE00DF015E08E0000810831608105A
:1001200088150816881608178312881483168810F5
:100130000000831208158316081100008312E301E2
:10014000831688150030831288190130E304831662
:10015000081600308312081A0130F7000310F70D5B
:100160007708E3048316881600308312881A01305A
:10017000F700F70DF70DFC30F7057708E304831659
:10018000081700308312081B0130F700F70DF70D38
:10019000F70DF830F7057708E3046308F8007808EE
:1001A000E200081183160811000083120815831657
:1001B000081100008312E3018316881500308312B2
:1001C00088190130E3048316081600308312081AD8
:1001D0000130F7000310F70D7708E3048316881643
:1001E00000308312881A0130F700F70DF70DFC304C
:1001F000F7057708E3048316081700308312081BFD
:100200000130F700F70DF70DF70DF830F705770817
:10021000E3046308F8007808E10008118316081168
:1002200088110812881208138312620EF700F0304A
:10023000F70577086104F8007808E100E11F22293A
:1002400083169028DF08031D272908102829081481
:10025000831608100000831288108316881000008F
:1002600083120811831608118312600EE1000F300B
:10027000E1056108E20062183F29881140298815CC
:10028000831688118312E218472908124829081694
:1002900083160812831262194F2988125029881672
:1002A000831688128312E219572908135829081750
:1002B000831608130000831208158316081160299D
:1002C0008312081183160811831260080F39E100A8
:1002D0006108E20062186E2988116F29881583165B
:1002E00088118312E21876290812772908168316D6
:1002F0000812831262197E2988127F2988168316B4
:1003000088128312E2198629081387290817831691
:100310000813000083120815831608118F29831211
:10032000081183160811831208005A080C3A0319A1
:10033000A029063A0319AE2A023A0319B42ABF2BA0
:10034000DF010130E0000810831608108815081638
:1003500088160817831288148316881000008312E9
:1003600008158316081100008312E301831688150F
:100370000030831288190130E30483160816003018
:100380008312081A0130F7000310F70D7708E30411
:100390008316881600308312881A0130F700F70D93
:1003A000F70DFC30F7057708E304831608170030D3
:1003B0008312081B0130F700F70DF70DF70DF83029
:1003C000F7057708E3046308F8007808E2000811ED
:1003D0008316081100008312081583160811000007
:1003E0008312E301831688150030831288190130C7
:1003F000E3048316081600308312081A0130F70050
:100400000310F70D7708E304831688160030831273
:10041000881A0130F700F70DF70DFC30F705770863
:10042000E3048316081700308312081B0130F7001D
:10043000F70DF70DF70DF830F7057708E3046308BB
:10044000F8007808E10008118316081188110812D5
:10045000881208138312620EF700F030F705770850
:100460006104F8007808E100E11F382A8316A62904
:10047000DF08031D3D2A08103E2A081483160810C1
:100480000000831288108316881000008312081160
:10049000831608118312600EE1000F30E105610838
:1004A000E2006218552A8811562A88158316881189
:1004B0008312E2185D2A08125E2A081683160812B3
:1004C00083126219652A8812662A88168316881292
:1004D0008312E2196D2A08136E2A0817831608136F
:1004E00000008312081583160811762A831208115A
:1004F00083160811831260080F39E1006108E200D9
:100500006218842A8811852A881583168811831217
:10051000E2188C2A08128D2A0816831608128312F4
:100520006219942A8812952A8816831688128312D3
:10053000E2199C2A08139D2A081783160813000045
:100540008312081583160811A52A83120811831631
:10055000081102308312DB005720CA2C0130DB0067
:100560000230DC006C20CA2CDF011030E0000810E3
:100570008316081088150816881608178312881421
:1005800083168810000083120815831608110000D6
:100590008312E30183168815003083128819013015
:1005A000E3048316081600308312081A0130F7009E
:1005B0000310F70D7708E3048316881600308312C2
:1005C000881A0130F700F70DF70DFC30F7057708B2
:1005D000E3048316081700308312081B0130F7006C
:1005E000F70DF70DF70DF830F7057708E30463080A
:1005F000F8007808E2000811831608110000831241
:1006000008158316081100008312E301831688156C
:100610000030831288190130E30483160816003075
:100620008312081A0130F7000310F70D7708E3046E
:100630008316881600308312881A0130F700F70DF0
:10064000F70DFC30F7057708E30483160817003030
:100650008312081B0130F700F70DF70DF70DF83086
:10066000F7057708E3046308F8007808E10008114B
:100670008316081188110812881208138312620E5B
:10068000F700F030F70577086104F8007808E1001A
:10069000E11F4C2B8316BA2ADF08031D512B0810CB
:1006A000522B08148316081000008312881083163A
:1006B0008810000083120811831608118312600E3F
:1006C000E1000F30E1056108E2006218692B881132
:1006D0006A2B8815831688118312E218712B081271
:1006E000722B08168316081283126219792B88124E
:1006F0007A2B8816831688128312E219812B08132D
:10070000822B08178316081300008312081583161E
:1007100008118A2B831208118316081183126008AE
:100720000F39E1006108E2006218982B8811992BBB
:100730008815831688118312E218A02B0812A12BAA
:1007400008168316081283126219A82B8812A92B87
:100750008816831688128312E219B02B0813B12B66
:100760000817831608130000831208158316081152
:10077000B92B83120811831608118312CA2C013079
:10078000DF005A08E00008108316081088150816C4
:1007900088160817831288148316881000008312A5
:1007A00008158316081100008312E30183168815CB
:1007B0000030831288190130E304831608160030D4
:1007C0008312081A0130F7000310F70D7708E304CD
:1007D0008316881600308312881A0130F700F70D4F
:1007E000F70DFC30F7057708E3048316081700308F
:1007F0008312081B0130F700F70DF70DF70DF830E5
:10080000F7057708E3046308F8007808E2000811A8
:1008100083160811000083120815831608110000C2
:100820008312E30183168815003083128819013082
:10083000E3048316081600308312081A0130F7000B
:100840000310F70D7708E30483168816003083122F
:10085000881A0130F700F70DF70DFC30F70577081F
:10086000E3048316081700308312081B0130F700D9
:10087000F70DF70DF70DF830F7057708E304630877
:10088000F8007808E1000811831608118811081291
:10089000881208138312620EF700F030F70577080C
:1008A0006104F8007808E100E11F582C8316C62B7C
:1008B000DF08031D5D2C08105E2C08148316081039
:1008C000000083128810831688100000831208111C
:1008D000831608118312600EE1000F30E1056108F4
:1008E000E2006218752C8811762C88158316881101
:1008F0008312E2187D2C08127E2C0816831608122B
:1009000083126219852C8812862C88168316881209
:100910008312E2198D2C08138E2C081783160813E6
:1009200000008312081583160811962C83120811F3
:1009300083160811831260080F39E1006108E20094
:100940006218A42C8811A52C88158316881183128F
:10095000E218AC2C0812AD2C08168316081283126C
:100960006219B42C8812B52C88168316881283124B
:10097000E219BC2C0813BD2C0817831608130000BD
:100980008312081583160811C52C831208118316CB
:10099000081183120800B60A0C30DA009521C8301D
:1009A000DB0057203608053C0319B6013608F8006D
:1009B0008B108A110A122B282010C822202AC8273F
:1009C000CE23202AD5274910C3205910000020101B
:1009D00020102010D42A20224F274700201020105A
:1009E000A029653A75382010A0296537F3377200C1
:1009F000D4326D383A100001C83AED343A10000193
:100A00004310201020002510201020100001251078
:100A10000001201020102010201020102010201085
:100A200020102010201000014E3461372037753A15
:100A3000A02641262010201020100001E432203191
:100A4000613A2F3A613AA036E13C2031EF3600019D
:100A5000CD307910E2376D10E2307400CD3079106E
:100A6000E2376D10F4307400C3306910CD3A631072
:100A70004E34E9327410C43720100001D4326D387E
:100A80003A102518323200004310201000012010C7
:100A90002010201000012010201020102010201005
:100AA00020102010201020102010000120102010F5
:100AB00020102010201020102010201020102010B6
:100AC0000001C3306910CD3A6310C437A0206D1007
:100AD000201020102000C83AED343A102518323288
:100AE000000125100001D424CD223A102518B23A75
:100AF000BA123019751D2518B23A0001C420D4224B
:100B00003A102518B23AAF123019F51732182518D5
:100B1000B23A0001CD306C10E432203A613AAF367F
:100B20006F10E4326E00CD307910E2376D10E23094
:100B30007400CD307910E2376D10F43074002C1051
:100B40002C08831687008312AC102C0883168700AC
:100B500083122C112C08831687008312AC112C08E9
:100B600083168700881108128812081308110811CB
:100B700008100810881088108312081083160810B7
:100B800083128810831688108312081183160811A7
:100B90008312AB018B1BAB178B130F30DB0057207D
:100BA000AB1B8B170130C2004208033C031C0F2E05
:100BB0000330E2006218DE2D8811DF2D88158316C0
:100BC00088118312E218E62D0812E72D0816831605
:100BD000081283126219EE2D8812EF2D88168316E3
:100BE00088128312E219F62D0813F72D08178316C1
:100BF000081300008312081583160811FF2D8312B5
:100C00000811831608118312AB018B1BAB178B13D2
:100C10000530DB005720AB1B8B17C20AD42D0230E6
:100C2000E2006218152E8811162E88158316881179
:100C30008312E2181D2E08121E2E081683160812A3
:100C400083126219252E8812262E88168316881282
:100C50008312E2192D2E08132E2E0817831608135F
:100C600000008312081583160811362E831208110E
:100C7000831608118312C2014208033C031C4F2F44
:100C800042084F20C300DF014308E000081083162C
:100C900008108815081688160817831288148316FA
:100CA00088100000831208158316081100008312B3
:100CB000E301831688150030831288190130E3049C
:100CC0008316081600308312081A0130F70003104B
:100CD000F70D7708E3048316881600308312881A0C
:100CE0000130F700F70DF70DFC30F7057708E30446
:100CF0008316081700308312081B0130F700F70D28
:100D0000F70DF70DF830F7057708E3046308F800EE
:100D10007808E200081183160811000083120815F4
:100D20008316081100008312E30183168815003032
:100D3000831288190130E3048316081600308312E9
:100D4000081A0130F7000310F70D7708E304831643
:100D5000881600308312881A0130F700F70DF70D5E
:100D6000FC30F7057708E304831608170030831278
:100D7000081B0130F700F70DF70DF70DF830F705F8
:100D80007708E3046308F8007808E1000811831687
:100D9000081188110812881208138312620EF700D6
:100DA000F030F70577086104F8007808E100E11FEA
:100DB000DB2E8316492EDF08031DE02E0810E12EDE
:100DC00008148316081000008312881083168810F8
:100DD000000083120811831608118312600EE100CF
:100DE0000F30E1056108E2006218F82E8811F92E33
:100DF0008815831688118312E218002F0812012F1C
:100E000008168316081283126219082F8812092FF8
:100E10008816831688128312E219102F0813112FD7
:100E2000081783160813000083120815831608118B
:100E3000192F8312081183160811831260080F39C5
:100E4000E1006108E2006218272F8811282F881519
:100E5000831688118312E2182F2F0812302F0816DC
:100E60008316081283126219372F8812382F8816BA
:100E7000831688128312E2193F2F0813402F081798
:100E80008316081300008312081583160811482FD3
:100E900083120811831608118312C20A3C2E08001F
:100EA0000B08C6008B13831603178C170C14000055
:100EB000000083120313C61B8B1703170C087F391E
:100EC0000319B02F0313C60003170D080313C7003F
:100ED00003170F080313C800AB018B1BAB178B1351
:100EE0004608DA009521AB1B8B17470803178D00C6
:100EF0000313480803178F0003130B08C9008B1353
:100F0000831603178C170C140000000083120313C0
:100F1000C91B8B1703170C0D0E0D7F390319B02F4A
:100F20000313C60003170D080313C70003170F08A8
:100F30000313C800AB018B1BAB178B134608DA00F9
:100F40009521AB1B8B17470803178D000313480827
:100F500003178F008D0A03198F0A0313502F0317ED
:100F600003130800420DF700F70DF70DF830F705F1
:100F70001F08C73977049F001F151F19BD2F1E08B2
:100F8000F90083161E08F80079088312C400780857
:100F9000C3004308F8004408F90008004908F801B4
:100FA00048020318D62F4808F700E22FF70108304F
:100FB000CA00C80DF70D490877020318F700F80DAD
:060FC000CA0BD92F080046
:101000004308C9004208C8008E30F7004908F800BC
:101010004808F900FA01F808031D18287908F800B3
:10102000F9010830F702F808031D1828F7012028F5
:101030000310F81B1F28F90DF80DF7031828F813F3
:101040007A08CB007908CA007808C9007708C80078
:101050004B08CF004A08CE004908CD004808CC0014
:10106000D301D2017A30D1008730D0004C08031967
:10107000A728D40050080319A728D407031C412827
:1010800048287F30D402031CA7280319A7284C281E
:101090008130D4070318A7285408F700F801F90194
:1010A000FA014D08D800D8174E08D7004F08D600CF
:1010B0001830D400D501561C75285308FA07031CB4
:1010C0006728F90A031D6728F80A0319D51752087B
:1010D000F907031C6E28F80A0319D5175108CE002A
:1010E000CE174E08F8070318D517D50DF80CF90CD4
:1010F000FA0CD80CD70CD60C0310D40B5A2801309C
:10110000F7070318A728F81B8C28D80DFA0DF90D3E
:10111000F80DF7030319A728D81F9D28FA0A031D05
:101120009D28F90A031D9D28F80A031D9D28F80C27
:10113000F90CFA0CF70A0319A7284D08D500510835
:10114000D506D51FA528F817AB28F813AB28F7014B
:10115000F801F901FA017A08CB007908CA00780889
:10116000C9007708C8004B08CF004A08CE004908DC
:10117000CD004808CC00D301C030D2007F30D10070
:101180008830D0004C0803198829D800500803196A
:101190008829D8020318CD28D2287F30D807031811
:1011A0008829D8288130D802031C88290319882966
:1011B0005808F700F801F901FA01D7014D08D600E7
:1011C000D6174E08D5004F08D4001930D800530860
:1011D000D4020318FB280130D5020318FB28D602DD
:1011E0000318FB28D7020318FB28D70AD60AD50A0A
:1011F0005308D4072D295208D502031816290130A7
:10120000D60203181629D70203181629D70AD60AB8
:101210005208D5075308D407031C2D29D50A031DEE
:101220002D29D60A031D2D29D70A2D2951088038CA
:10123000D60203182C290130D70203182C29D70A0B
:1012400051088038D6075208D507031C0A29D60A48
:10125000031D0A29D70A0A297A14D80B30293B29F9
:101260000310D40DD50DD60DD70D0310FA0DF90DC1
:10127000F80DD90DE728591C43290310F80CF90C77
:10128000FA0CD90C4629F70303198829D91B6F29B1
:101290000310D40DD50DD60DD70D5308D402031865
:1012A0005B290130D50203185B29D60203185B299C
:1012B000D702031C7E295208D50203186629013083
:1012C000D60203186629D702031C7E2951088038EC
:1012D000D60203186F290130D702031C7E29FA0AAF
:1012E000031D7E29F90A031D7E29F80A031D7E29A4
:1012F000F70A03198829F80CF90CFA0C4D08D800E4
:101300005108D806D81F8629F8178C29F8138C297C
:10131000F701F801F901FA017A08C7007908C60057
:101320007808C5007708C4004708CB004608CA0003
:101330004508C9004408C8008E30F7004808F70285
:101340004908F9004A08F800F917F7080319B32902
:101350000310F908031DAF29F8080319B329F90C84
:10136000F80CF70BA829C91FBA29F809F909F80AD6
:101370000319F90A78088A110A16BE28CB01CA0196
:101380004308C9004208C8004B08CF004A08CE00F5
:101390004908CD004808CC00D301D201D101643006
:1013A000D0002030D800D401D501D601D7014F0894
:1013B000FA004E08F9004D08F8004C08F700031039
:1013C000771CF0295008D40751080318510FD5078E
:1013D00052080318520FD60753080318530FD707A4
:1013E000D70CD60CD50CD40CFA0CF90CF80CF70C65
:1013F000D80BDF297A08CB007908CA007808C90021
:101400007708C80083104B08CF004A08CE0049086F
:10141000CD004808CC00D301D2010330D100FF3009
:10142000D0008318162A543084008313F701F80182
:10143000F901FA01D401D501D601D70153085204AC
:10144000510450040319542A2030D8000310CC0D45
:10145000CD0DCE0DCF0DD40DD50DD60DD70D530816
:101460005702031D3D2A52085602031D3D2A51080A
:101470005502031D3D2A50085402031C4E2A5008F1
:10148000D4025108031C510FD5025208031C520FFD
:10149000D6025308031C530FD7020314F70DF80D9F
:1014A000F90DFA0DD80B262A54088000840A550835
:1014B0008000840A56088000840A570880007A0851
:1014C000C7007908C6007808C5007708C40044083A
:1014D000F8008A110A16C9282030431E3030C40093
:1014E0004208F700C21F7C2AF709F70A7708C200F2
:1014F0002D30C400C31743144208C8006430C9002B
:101500008A11CE278A157708C20030307807C500C7
:101510004208C8000A30C9008A11CE278A15303027
:101520007707C70030307807C6004408F70030302E
:10153000450203199F2AC314C31B4315B32A431939
:10154000B32A4408C500C318AA2A3030460203193A
:10155000AD2A4314C31BC314B32A031D4314031D34
:10156000B32A4508C6004319BA2AC318C52A431826
:10157000D02ADB2AAB018B1BAB178B134408DA0094
:101580008A1195218A15AB1B8B17AB018B1BAB17EF
:101590008B134508DA008A1195218A15AB1B8B172E
:1015A000AB018B1BAB178B134608DA008A11952110
:1015B0008A15AB1B8B17AB018B1BAB178B13470823
:1015C000DA008A1195218A15AB1B8B170800420897
:1015D00044020318EF2A45084302031C0A2B831612
:1015E000061283120616AB018B1BAB178B1301304F
:1015F000DB000430DC008A116C208A15AB1B8B17D2
:10160000933003178D0005308F008A110313502784
:101610008A15242B8316061283120612AB018B1B2C
:10162000AB178B130130DB000430DC008A116C2017
:101630008A15AB1B8B17993003178D0005308F006F
:101640008A11031350278A158A110A160A2D0B08CE
:10165000C6008B13831603178C170C1400000000B0
:1016600083120313C61B8B170318662B03170C0872
:101670007F390313C60003170D080313C7000317B0
:101680000F080313C800AB018B1BAB178B13460865
:10169000DA008A1195218A15AB1B8B1747080317AF
:1016A0008D000313480803178F0003130B08C900AC
:1016B0008B13831603178C170C1400000000831281
:1016C0000313C91B8B17C50B662B8D2B03170C0D32
:1016D0000E0D7F390313C60003170D080313C7004F
:1016E00003170F080313C800AB018B1BAB178B1339
:1016F0004608DA008A1195218A15AB1B8B1747081B
:1017000003178D000313480803178F008D0A031970
:101710008F0A03100313C50B272B08007808450810
:10172000C8006430C9008A11CE278A157708C50021
:1017300078083030031DA32BC61CB22BC619B22B60
:10174000461A2030A62BC61146124614F807AB01E4
:101750008B1BAB178B137808DA008A1195218A1539
:10176000AB1B8B174508C8000A30C9008A11CE2769
:101770008A157708C50078083030031DC52BC619B7
:10178000D12B461CD12B461A2030F807AB018B1BFE
:10179000AB178B137808DA008A1195218A15AB1BD9
:1017A0008B173030C507AB018B1BAB178B1345086C
:0E17B000DA008A1195218A15AB1B8B170800F1
:1020000003081F398300FF30AC00AC152C08831681
:10201000870083122C162C08831687000930930042
:1020200028308312940083169417141383123B10E4
:10203000BD01BC0183161F149F141F159F1107308B
:102040009C008313FF30850000308800FF3086003D
:1020500083120B1683160113C03083128B04B60152
:10206000023003178D0083168C130C1483120C0896
:102070000313B700083003178D0083168C130C145C
:1020800083120C080313B80083161F1383121F1743
:102090009F1783169F1783121F1483161F109F14F8
:1020A0001F119F110A1283129F250A16AB018B1B69
:1020B000AB178B130C30DA000A1295210A16AB1BF2
:1020C0008B17AB018B1BAB178B130130DB00DC00D4
:1020D0000A126C200A16AB1B8B17DC3003178D001D
:1020E00004308F000A12031350270A16AB018B1B12
:1020F000AB178B130130DB000230DC000A126C20BE
:102100000A16AB1B8B17E73003178D0004308F00C6
:102110000A12031350270A161430C200AB018B1B9E
:10212000AB178B13FA30DB000A1257200A16AB1BD1
:102130008B17C20B8E28AB018B1BAB178B130C308C
:10214000DA000A1295210A16AB1B8B17C2010A127C
:10215000B2270A167908BF007808BE000130C20015
:102160000A12B2270A167908C1007808C0003F0891
:10217000C3003E08C2000A128A1500280A168A11F6
:102180007808B9004108C3004008C2000A128A1545
:10219000BE290A168A117808BA003608FB3E0318D1
:1021A0000A2D053E0C2DAB018B1BAB178B13013099
:1021B000DB00DC000A126C200A16AB1B8B17EE301A
:1021C00003178D0004308F000A12031350270A16DC
:1021D000AB018B1BAB178B130130DB000230DC0033
:1021E0000A126C200A16AB1B8B17F83003178D00F0
:1021F00004308F000A12031350270A16AB018B1B01
:10220000AB178B130130DB000330DC000A126C20AB
:102210000A16AB1B8B17FC3003178D0004308F00A0
:102220000A12031350270A16AB018B1BAB178B1333
:102230000730DB000230DC000A126C200A16AB1BF0
:102240008B173708C2000130C3000A128A156C22AE
:102250000A168A11AB018B1BAB178B13DF30DA0028
:102260000A1295210A16AB1B8B17003003178D003D
:1022700005308F000A12031350270A16AB018B1B7F
:10228000AB178B130730DB000330DC000A126C2025
:102290000A16AB1B8B173808C2000130C3000A12A4
:1022A0008A156C220A168A11033003178D00053037
:1022B0008F000A12031350270A16AB018B1BAB17B2
:1022C0008B130F30DB000230DC000A126C200A1680
:1022D000AB1B8B173908C2000130C3000A128A15E4
:1022E0006C220A168A11AB018B1BAB178B13DF30E4
:1022F000DA000A1295210A16AB1B8B17AB018B1B58
:10230000AB178B134330DA000A1295210A16AB1B68
:102310008B17AB018B1BAB178B130F30DB0003301C
:10232000DC000A126C200A16AB1B8B173A08C2009D
:102330000130C3000A128A156C220A168A1107306E
:1023400003178D0005308F000A12031350270A1659
:102350003708C2003808C3003908C4003A08C5006D
:102360000A128A15E72A0A168A110A2DAB018B1B5D
:10237000AB178B130130DB00DC000A126C200A164D
:10238000AB1B8B17093003178D0005308F000A1225
:10239000031350270A16AB018B1BAB178B130130AD
:1023A000DB000230DC000A126C200A16AB1B8B1714
:1023B000143003178D0005308F000A1203135027C5
:1023C0000A16AB018B1BAB178B130130DB000330FC
:1023D000DC000A126C200A16AB1B8B171E30031789
:1023E0008D0005308F000A12031350270A1683163A
:1023F000861583128619452AAB018B1BAB178B13ED
:102400001430DB000A1257200A16AB1B8B178316F9
:1024100086158312861D072A3B1C2A2A3B10831629
:10242000061283120616AB018B1BAB178B13013000
:10243000DB000430DC000A126C200A16AB1B8B1781
:10244000283003178D0005308F000A120313502720
:102450000A16452A3B148316061283120612AB0194
:102460008B1BAB178B130130DB000430DC000A122E
:102470006C200A16AB1B8B172E3003178D0005300E
:102480008F000A12031350270A160A2D831686148A
:1024900083128618642AAB018B1BAB178B13143085
:1024A000DB000A1257200A16AB1B8B178316861403
:1024B0008312861C562A0130B7073708633C03187D
:1024C000632A6430B7007F2A831606158312061923
:1024D0007F2AAB018B1BAB178B131430DB000A1266
:1024E00057200A16AB1B8B17831606158312061D81
:1024F000742A0130B702B708031D7F2AB7010B0801
:10250000F7008B13023003178D00031337080317EE
:102510008C0083168C130C1555308D00AA308D005D
:102520008C148C18912A0C117708831203138B04D6
:10253000AB018B1BAB178B130130DB00DC000A12E5
:102540006C200A16AB1B8B17343003178D00053037
:102550008F000A12031350270A16AB018B1BAB170F
:102560008B130130DB000230DC000A126C200A16EB
:10257000AB1B8B173E3003178D0005308F00031007
:1025800006300313C5000A128A1527230A168A117A
:102590003708C2000130C3000A128A156C220A16DD
:1025A0008A11AB018B1BAB178B13DF30DA000A12D9
:1025B00095210A16AB1B8B17443003178D0005308D
:1025C0008F000A12031350270A16AB018B1BAB179F
:1025D0008B130E30DB000230DC000A126C200A166E
:1025E000AB1B8B17473003178D0005308F000A1285
:1025F000031350270A16AB018B1BAB178B1301304B
:10260000DB000330DC000A126C200A16AB1B8B17B0
:102610004B3003178D0005308F000A12031350272B
:102620000A16AB018B1BAB178B130130DB00043098
:10263000DC000A126C200A16AB1B8B1756300317EE
:102640008D0005308F000A12031350270A160A2D39
:102650008316861483128618462BAB018B1BAB178F
:102660008B131430DB000A1257200A16AB1B8B1792
:10267000831686148312861C382B0130B80738085D
:10268000633C0318452B6430B800612B8316061594
:1026900083120619612BAB018B1BAB178B13143004
:1026A000DB000A1257200A16AB1B8B178316061580
:1026B0008312061D562B0130B802B808031D612B8A
:1026C000B8010B08F7008B13083003178D000313B4
:1026D000380803178C0083168C130C1555308D00A9
:1026E000AA308D008C148C18732B0C117708831270
:1026F00003138B04AB018B1BAB178B130130DB0077
:10270000DC000A126C200A16AB1B8B176130031712
:102710008D0005308F000A12031350270A16AB01F3
:102720008B1BAB178B130130DB000230DC000A126D
:102730006C200A16AB1B8B176B3003178D0005300E
:102740008F00031006300313C5000A128A152723D1
:102750000A168A113808C2000130C3000A128A150D
:102760006C220A168A11713003178D0005308F0014
:102770000A12031350270A160A2D0230C200AB01B9
:102780008B1BAB178B13FA30DB000A1257200A168B
:10279000AB1B8B17C20BBF2B023034078400831393
:1027A0003518831708308000013034078400831304
:1027B000351883171E3080003408840083133518C1
:1027C00083173230800004303407840083133518B7
:1027D00083170130800005303407840083133518D7
:1027E000831706308000340784008313351883175D
:1027F000E63080000A129F250A16AB018B1BAB172F
:102800008B130C30DA000A1295210A16AB1B8B17BA
:10281000AB018B1BAB178B130130DB00DC000A1202
:102820006C200A16AB1B8B1702303407840083130D
:10283000351883170008C200013034078400831361
:10284000351883170008C300340884008313351833
:1028500083170008C400733003178D0005308F0004
:10286000031006300313C5000A128A1527230A161F
:102870008A114208C5000130C6000A128A158E234B
:102880000A168A11AB018B1BAB178B133A30DA0097
:102890000A1295210A16AB1B8B174308C50001309D
:1028A000C6000A128A158E230A168A11AB018B1BE9
:1028B000AB178B133A30DA000A1295210A16AB1BBC
:1028C0008B174408C5000130C6000A128A158E23F2
:1028D0000A168A11AB018B1BAB178B130130DB007F
:1028E0000230DC000A126C200A16AB1B8B17043076
:1028F000340784008313351883170008C20005309D
:10290000340784008313351883170008C30006308A
:10291000340784008313351883170008C4007E3001
:1029200003178D0005308F00031006300313C50018
:102930000A128A1527230A168A114208C500013097
:10294000C6000A128A158E230A168A11AB018B1B48
:10295000AB178B132F30DA000A1295210A16AB1B26
:102960008B174308C5000130C6000A128A158E2352
:102970000A168A11AB018B1BAB178B132F30DA00B1
:102980000A1295210A16AB1B8B17AB018B1BAB17D9
:102990008B133230DA000A1295210A16AB1B8B1703
:1029A000AB018B1BAB178B133030DA000A12952169
:1029B0000A16AB1B8B174408C5000130C6000A126B
:1029C0008A158E230A168A11AB018B1BAB178B134A
:1029D0000130DB000330DC000A126C200A16AB1B4E
:1029E0008B178A3003178D0005308F000A120313EE
:1029F00050270A160230C200AB018B1BAB178B139A
:102A0000FA30DB000A1257200A16AB1B8B17C20BD9
:102A1000FC2C0A2DA62863000A148A100A158207C6
:0A2A2000D328B629462A282BBD2B27
:02400E00723FFF
:00000001FF
;PIC16F877A
;CRC=972C  CREATED="08-Jan-23 17:59"
